:020000040800F2
:10000000206A00209D010008B92E0008E1280008A0
:10001000B52E0008411000088D47000800000000C0
:10002000000000000000000000000000C5440008BF
:1000300045100008000000008D3B0008C94400087E
:10004000B7010008B7010008B7010008B7010008B0
:10005000B7010008B7010008B7010008B7010008A0
:10006000B7010008B7010008B7010008B701000890
:10007000B7010008B7010008B7010008B701000880
:10008000B7010008B7010008B7010008B701000870
:10009000B7010008B7010008B7010008B701000860
:1000A000B7010008B7010008B7010008B701000850
:1000B000B7010008B7010008B7010008B701000840
:1000C000B7010008B7010008B7010008B701000830
:1000D000B70100085D470008694700087547000838
:1000E000B7010008B7010008B7010008B701000810
:1000F000B7010008B7010008B7010008B701000800
:10010000B7010008B7010008B7010008B7010008EF
:1001100099450008A5450008B7010008B701000887
:10012000B7010008B7010008B7010008B7010008CF
:10013000B70100080000000000000000B70100083F
:10014000B7010008B7010008B7010008B7010008AF
:10015000B7010008B7010008B7010008814700088F
:10016000B7010008B7010008B7010008B70100088F
:10017000B7010008B70100080000000000000000FF
:10018000B7010008B7010008DFF80CD000F012FF3B
:1001900000480047494A0008206A00200648804776
:1001A00006480047FEE7FEE7FEE7FEE7FEE7FEE75C
:1001B000FEE7FEE7FEE7FEE7854500088901000847
:1001C0002DE9F05F0546002092469B46884606468C
:1001D000814640241BE0284641464746224600F01F
:1001E000ADFC53465A46C01A914110D311461846E9
:1001F000224600F094FC2D1A67EB01084F46224678
:100200000120002100F08BFC17EB00094E41201E5D
:10021000A4F10104DFDC484631462A464346BDE8E6
:10022000F09F40EA01039B0703D009E008C9121FB1
:1002300008C0042AFAD203E011F8013B00F8013BA0
:10024000521EF9D27047D2B201E000F8012B491ECC
:10025000FBD270470022F6E710B513460A46044663
:100260001946FFF7F0FF204610BD421C10F8011B95
:100270000029FBD1801A704710B5002200E0521C03
:10028000835C8C5CA34201D1002BF8D1D8B2E1B2DF
:10029000401A10BD30B505460020034600E05B1C47
:1002A000934205D2EC5CC85C201A01D1002CF6D137
:1002B00030BD00002DE9FF4F087883B09946FF2834
:1002C00005D0491C2D2804D00024002008E000207F
:1002D0000BE00124F9E700EB800003EB4000491C30
:1002E0000B78FF2BF7D104B140420023029314781E
:1002F00019461D462D2C01D02B2C04D1521C2D2C1F
:1003000013D000240294AA461478FF2C0FD00A259B
:10031000A3FB057801FB05814FF0000C03FB0C11DA
:10032000521CE3194AEB0101EEE70124EAE781449C
:1003300053EA010002D019F5C87F06DA03980021BC
:10034000C0E9001107B0BDE8F08F0025AE4E2F4682
:10035000DFF8B882184600F0D8FDCDE90001B9F108
:10036000000002DAC9F1000400E004460023A74AB5
:100370001AEB030B42EB045A12E0E00707D02A46BF
:1003800033463846414600F0ECF9074688462A468F
:1003900033461046194600F0E4F905460E4664104F
:1003A000002CEAD1DDE90001B9F1000F5A465346AD
:1003B00006DA00F048FA3A46434600F044FA05E00F
:1003C00000F0CFF93A46434600F0CBF9029A0AB161
:1003D00081F00041039AC2E90001B3E72DE9FF4F24
:1003E0001F468DB0D7E901464FF0FF382E20454615
:1003F0004FF000090B90B9696D1C0E988847396A57
:10040000824688470028F6D1BAF1FF3F0AD024F48B
:10041000D064002E11DDBAF12B0F08D0BAF12D0FE8
:100420000BD102E0404611B08DE744F48064B96915
:100430006D1C0E9888478246761E6946600501D578
:100440002D2000E02B208DF8000001F1010B0DF1B3
:10045000200809E0B9696D1C0E98884782460F98FC
:1004600044F40074761E0560002E02DDBAF1300FF0
:10047000F0D00B998A453ED144F0800406E00F99F4
:10048000681CA9F1010944F400740860B9696D1C85
:10049000761E0E98884782463028F0D02BE00B99C4
:1004A0008A4505D1200603D444F08004761E18E066
:1004B000504606F05DFE08B30DF11302761EAAF158
:1004C000300044F40074934506D20BF8010B20066B
:1004D00007D5A9F1010003E0200602D409F10100CB
:1004E0008146A00502D50F99681C0860B9696D1C8A
:1004F0000E9888478246002ED1DC53E0002E51DD55
:10050000BAF1650F02D0BAF1450F4BD1A00549D51C
:10051000B9696D1C24F44074761E0E988847824693
:10052000002E0CDD2B2804D0BAF12D0F07D144F496
:100530008074B9696D1C0E9888478246761EE00566
:1005400001D52D2100E02B2108F8011BCDF82C80CE
:1005500021E00DF12901761E44F4007488450CD287
:10056000AAF1300010F0FF0088F8000002D10B99CA
:10057000884509D908F1010806E0E00501D52448BD
:1005800001E042F20F708146B9696D1C0E988847F0
:1005900082460F980560002E04DD504606F0E8FD07
:1005A0000028D6D1F9690E988847FF208BF8000003
:1005B00088F800000020069007904B466A4608A97C
:1005C00006A8FFF777FEA00502D46FF001002AE726
:1005D00014F0240F0AD0E00714D1DDE906123868C0
:1005E000031D3B600068C0E900120BE0DDE9060175
:1005F00000F063FA0146E00704D13868021D3A6052
:100600000068016028460EE7000014400000F03F3B
:10061000F1D8FFFF2DE9FE4F804681EA0300C00FAD
:100620000C46009021F0004123F00045B8EB020099
:10063000A94105D24046214690461C460B4602463B
:1006400023F00040104347D0270DC7F30A00C3F33F
:100650000A510290401A019040286BDAC3F313004C
:1006600040F4801B0098924620B10023D2EB030A8D
:1006700063EB0B0B01985946C0F14002504600F065
:100680004EFA06460D4650465946019A00F066FA63
:1006900010EB08006141002487EA115284EAE773F5
:1006A0001A4340D0009A62B3019A012A4FEA0752D6
:1006B00015DC001B61EB02014FF0004202EA075219
:1006C000CDE90042001C41F5801132462B4600F076
:1006D0003AFB03B0BDE8F08F40462146F9E7001B26
:1006E00061EB0201001C41F5801300185B412018EA
:1006F000A2F5001747EB030140EAD570B6196D412A
:1007000011E06D084FEA360645EAC0754FEA075218
:10071000001B61EB0201001C41F5801149084FEA02
:1007200030000019514132462B4603B0BDE8F04F6E
:1007300000F0FABA0098012240000023D0EB020238
:1007400063EBE073009821464FEAE074B8EB0000D9
:1007500061EB0401E9E783F000435BE781F00041CE
:1007600058E72DE9FE4F81EA030404F0004421F02C
:10077000004100944FF0000B23F0004350EA0104C5
:100780005ED052EA03045BD0C3F30A54C1F30A55A6
:100790002C44A4F2F3340194A0FB0254C1F31301DE
:1007A00041F48011C3F3130343F4801301FB0244AB
:1007B00000FB034E840A970A44EA815447EA8357B0
:1007C000A4FB076802958D0A05FB07854FEA932C69
:1007D00004FB0C542705029D4FEA065847EA1637DA
:1007E000B5EB08056EEB070C870E920E47EA8117F2
:1007F00042EA8312A7FB0201B6EB0B0164EB000493
:100800002B0D43EA0C335E1844EB1C50DA4651467C
:10081000E7FB0201C5F313044FEA0B3343EA145319
:100820004FEA0432019C43EA0603A4F10C0402944B
:10083000009CCDE900B400F086FA03B0BDE8F08F6B
:1008400000200146F9E72DE9F04D81EA030404F0A8
:10085000004B21F0004514464FF0000A23F0004100
:1008600050EA050220D054EA01021DD0C5F30A5710
:100870000246C5F31303C1F31300C1F30A5640F453
:10088000801543F48013A7EB0608101BD64608F228
:10089000FD3873EB050002D308F1010801E092185E
:1008A0005B41B8F1000F03DA00200146BDE8F08D8E
:1008B00000204FF48011064684460EE0171B73EBB0
:1008C000050705D3121B63EB050306434CEA010C35
:1008D00049084FEA300092185B4150EA0107EDD118
:1008E00052EA030012D082EA040083EA05010843B9
:1008F00005D0101BAB4106D20122002306E00022E6
:100900004FF0004302E06FF0010253101AEB0600B3
:100910004CEB085110EB0A0041EB0B01BDE8F04D28
:1009200000F002BA30B5041E71F1000404DB4FF090
:100930000044404264EB0101141E73F1000405DB26
:100940001C464FF00043524263EB0403801A994166
:1009500001D3012030BD002030BD30B5041E71F13F
:10096000000404DB4FF00044404264EB0101141E1C
:1009700073F1000405DB1C464FF00043524263EB69
:100980000403101A8B4101D2012030BD002030BD7C
:1009900030B5041E71F1000404DB4FF00044404206
:1009A00064EB0101141E73F1000405DB1C464FF0DB
:1009B0000043524263EB0403101A8B4101D3012020
:1009C00030BD002030BD30B5041E71F1000404DBE1
:1009D0004FF00044404264EB0101141E73F1000427
:1009E00005DB1C464FF00043524263EB0403801AC0
:1009F000994101D2012030BD002030BD30B5041E28
:100A000071F1000404DB4FF00044404264EB01014B
:100A1000141E73F1000405DB1C464FF000435242E4
:100A200063EB040342404B401A4301D0002030BD29
:100A3000012030BD0EB5C10F80EAE0700844CA073E
:100A4000002140F233438DE80E000A460B4600F0C9
:100A50007AF903B000BD70B5C1F30A5201F0004548
:100A60000024C1F3130140F2FF3341F480119A4294
:100A700001DA002070BD40F233439A42A2F23342C1
:100A800003DC524200F05AF800E090402C43F1D0D1
:100A9000404270BD00F0004230F000400AD0C10D6D
:100AA00001F56071C0F3160042EA0151C208400727
:100AB0001143704700200146704701F0004330B4F5
:100AC00021F0004150EA010206D00A0DA2F5607241
:100AD000C1F31301002A02DC30BC00207047440F30
:100AE00044EAC104C100E01830BC00EBC25000F081
:100AF000BBB830B50B46014600202022012409E096
:100B000021FA02F59D4205D303FA02F5491B04FAC6
:100B100002F52844151EA2F10102F1DC30BD202AA5
:100B200004DB203A00FA02F1002070479140C2F144
:100B3000200320FA03F3194390407047202A04DB76
:100B4000203A21FA02F00021704721FA02F3D04046
:100B5000C2F120029140084319467047202A06DB63
:100B6000CB17203A41FA02F043EAE07306E041FA7B
:100B700002F3D040C2F12002914008431946704769
:100B8000426842B1016811F8013B23B1521EC0E92D
:100B90000012184670470121C160881E70474268E4
:100BA0005AB1C368016843B983688B4205D0491EB6
:100BB000521CC0E90012002070474FF0FF30704710
:100BC0000FB40B0010B58AB00FA900910E994FF029
:100BD0000004234ACC60214CCDE9064200D0042316
:100BE0006FF00042CDE901321E4A089202466B4680
:100BF0000020FFF7F3FB0AB010BC5DF814FBF0B562
:100C000085B007464FF0FF300091CDE901011E4647
:100C1000002015460C4604903B466A46314604A81F
:100C2000FFF7CEFF04990346601825B109B10246CB
:100C300000E022462A6000290ED0002B02DD009938
:100C4000814209D00094001BCDE901043B466A466D
:100C5000314604A8FFF7B4FF05B0F0BD810B0008D2
:100C60009F0B0008E50F00080029A8BF7047401C33
:100C7000490008BF20F00100704710B4B0FA80FCB2
:100C800000FA0CF050EA010404BF10BC704749B1EF
:100C9000CCF1200421FA04F411FA0CF118BF01215F
:100CA00021430843A3EB0C01CB1D4FEA00614FEA3F
:100CB000102042BF002010BC704700EBC35010440E
:100CC0000029A4BF10BC7047401C490008BF20F099
:100CD000010010BC7047F0B400F0004221F0004168
:100CE00020F00040CE0DC30DC1F3160141F4000108
:100CF000C0F316004C42154640F40000761E09E091
:100D000010EB440002D582F0004240428842F7D8FE
:100D100040005B1EB342F9DA18B1F0BC0021FFF7C6
:100D2000ACBF2846F0BC704710B5141E73F1000428
:100D300008DA401C41F1000192185B411A4301D1CD
:100D400020F0010010BD2DE9F04D92469B4611B1F7
:100D5000B1FA81F202E0B0FA80F220329046FFF759
:100D6000DEFE04460F4640EA0A0041EA0B01534604
:100D70005A46084313D0114653EA010019D0C8F16E
:100D800040025046FFF7DAFE05460E4650465946E9
:100D90004246FFF7C4FE084305D0012004E0204688
:100DA0003946BDE8F08D0020054346EAE0762C4345
:100DB00037430A986305E40AA0EB08000022FD0A05
:100DC00044EA47540A3002D500200146E9E701050C
:100DD00010196941DDE9084500196941BDE8F04D88
:100DE000A2E72DE9F04D00231A461B1A8A4103DBC6
:100DF00000200146BDE8F08DC1F30A52C1F3130192
:100E000041F480154FF0000BD10702D100186D415D
:100E1000521E0027044640F2FF11384601EB620AD9
:100E20003E468046024600204FF48011FFF786FEC2
:100E3000C2197141BB1846EB0100B4EB030C75EB12
:100E4000000C04D3E41A65EB000517460E4624197E
:100E500008F101006D4180463428E3DDF91946EBC5
:100E60000600091BA84103D24FF0FF32134601E0F0
:100E7000002213461BEB070046EB0A51BDE8F04D7C
:100E8000FFF752BF2DE9FE4FC3F30A5701F00045AB
:100E90000024C1F30A56C3F31303C1F3130143F44F
:100EA000801312EB020AA64641F48011009543EB31
:100EB000030CA7F1010B16E0B0EB0A0061EB0C018B
:100EC000071E71F1000707DA4FF00008D0EB0800A9
:100ED00085F0004568EB0101171A73EB0107EBD3AE
:100EE000761E001849415E45F6DA50EA010209D043
:100EF000CDE900E5002213460296FFF724FF03B078
:100F0000BDE8F08F20460099F9E70EB540F2334274
:100F100002920022CDE900221346FFF714FF03B02E
:100F200000BDC1F30A52C1F3130140F2FF3341F493
:100F300080119A4202DA00200146704740F23343A2
:100F40009A42A2F2334202DC5242FFF7F7BDFFF7AA
:100F5000E6BD000030B5041E71F1000404DB4FF063
:100F60000044404264EB0101141E73F1000405DBF0
:100F70001C464FF00043524263EB04038B4208BF10
:100F8000824230BD30B5041E71F1000404DB4FF025
:100F90000044404264EB0101141E73F1000405DBC0
:100FA0001C464FF00043524263EB0403994208BFD2
:100FB000904230BD1CB50948009009480190054693
:100FC000009C06E0E06840F0010394E807009847C1
:100FD0001034AC42F6D3FFF7DBF800009C81000828
:100FE000BC810008C0B24FF4F05100F00DB80EB54E
:100FF00040F2334102910021CDE900110A460B462F
:10100000FFF7A1FE03B000BD7F2801D9002208E050
:10101000064A02EB5002C007127800D1120902F012
:101020000F0201209040084070470000587C0008E3
:1010300040F27150C2F200000021017070470000C0
:10104000FEE700007047000072B600BFFEE7000038
:1010500080B540F6F011C2F2000191E80C50096928
:1010600080E80C50016180BD40F6F010C2F2000033
:101070000021C0E90011C0E90211016140F21450E1
:10108000C2F20000016040F2D020C2F20000017004
:101090007047000070B588B00020ADF8080040F23D
:1010A000381048F28911C2F20000C0F6000108228F
:1010B0006423642401F098FB20B10124042C40F047
:1010C000CB80DBE040F238100DF10B06C2F20000DD
:1010D00002AB31461522009400F0AEFF20B102248D
:1010E000042C40F0B980C9E0BDF80800152840F094
:1010F000B0809DF80B000424502840F0AB809DF890
:101100000C00032840F0A6809DF80D00102840F048
:10111000A1804FF6FF7000214AF20102735C584033
:10112000002300BF044682EA5000E50708BF6008BC
:10113000072B03F10103F5D301311329EED1BDF8DB
:101140001E10814240F09780BDF80E109DF81000EF
:101150009DF8112049BA41EA006040EA02414CF68C
:101160006B22C6F65F32A1FB0203BDF812609DF848
:1011700014009DF8155076BA46EA006040EA05462C
:10118000980D49F28063C0F2980300FB1311A6FB8F
:10119000022500EE101AA90D01FB13629FED451AFE
:1011A00002EE102AB8EE400AB8EE422A80EE010A9A
:1011B00082EE011ABDF816209FED3F2A12BABDF843
:1011C0001830BDF81A60120C9DF81C501BBA76BA84
:1011D00046EA05669DF81D501B0C80EE020A81EE62
:1011E000021A02EE102AB8EE422AB2EE043A82EE59
:1011F000032A03EE103A9FED314A46EA0546B8EE5F
:10120000433A83EE043A04EE106A9FED2D5AB8EE8D
:10121000444A84EE054A05EE100AB8EE455A40F6F7
:10122000F01030EE050AC2F2000080ED000A00EE78
:10123000101AB8EE400A31EE000A002480ED010ACF
:1012400080ED022A80ED033A80ED044A042C03D19C
:1012500014E00324042C11D0E4B900F011FA40F298
:101260001451C2F20001086040F2D020C2F2000026
:10127000002404701AE00524042CEDD140F2D020A3
:10128000C2F2000001780131CAB2032A017001D90B
:1012900004240BE000F0F4F940F21451C2F2000112
:1012A0000968401AB0F5FA7F88BF0624204608B0C6
:1012B00070BD00BF0050C347000070420000C8422C
:1012C00000007A44002804BF01207047B0B50446EE
:1012D00090F8200010B9204600F06EF820680168F0
:1012E00041F00101016000F0CBF90546206841683A
:1012F000C90705D100F0C4F9401B0B28F6D310E054
:10130000016821F00201016000F0BAF9054600BF52
:101310002068416889070DD500F0B2F9401B0B2801
:10132000F6D3606A052140F400306062012084F841
:101330002010B0BD217E0268012922F0800208BF82
:1013400080320260617E0268012922F0400208BFFB
:1013500040320260A17E0268012922F0200208BF0B
:1013600020320260E17E0268012922F0100218BFDB
:1013700010320260217F0268012922F0080208BFB2
:1013800008320260617F0268012922F0040208BF6E
:1013900004320260D4E901C2D4E9033561691A4319
:1013A0002A431143ACF101021143C1610020012124
:1013B000606284F82010B0BD80B586B046F200416E
:1013C0000068C4F20001002288420592CDE90322A0
:1013D0000292019201D006B080BD43F63000009227
:1013E000C4F20200036943F000730361036903F070
:1013F00000730093009B0092036843F001030360B5
:10140000006800F00100009000984FF4C050019077
:101410000220CDE90202032004900920059001F585
:10142000CE3001A900F054F806B080BD70B5866DCD
:10143000044600F025F994F83510022925D1054617
:101440002068216C026822F016020260426922F0D4
:101450008002426109B9A16C19B1016821F008014B
:101460000160016821F00101016000BF206800688F
:10147000C0070ED000F004F9401B0628F6D3202048
:101480006065032084F835000CE080206065012051
:1014900008E0E06D3F2101FA00F0B060012084F81F
:1014A00035000020002184F8341070BD90F835100C
:1014B000022909D1052180F835100068016821F062
:1014C00001010160002070478021416501207047C3
:1014D0002DE9F04F83B000F1200200F13E4741F6C4
:1014E0000045009207F1FF77C4F2020508224FEA97
:1014F000B726A84208BF0722072E38BF4FEAB722F7
:1015000000274FF0000A4FF0000801920AE000BFE8
:1015100008F101080AF1020AB8F1100F07F10407F7
:1015200000F09D800D68012202FA08FC15EA0C0902
:10153000EED04D68032205F0030BABF10106012E3E
:1015400002FA0AFE10D88668CC6826EA0E0604FA6B
:101550000AF4344384604468C5F3001524EA0C0699
:1015600005FA08F52E434660BBF1030F1BD0C66891
:101570008D6826EA0E0605FA0AF52E43BBF1020F26
:10158000C66010D16FF00302009D02EA580655F8BC
:1015900006C007F01C040F220B69A2402CEA0202CD
:1015A000A3401A43AA5102684B6822EA0E0203F0D4
:1015B000030606FA0AF6324313F4403F0260A7D04E
:1015C000002243F644030292C4F202031A6843F66F
:1015D000004442F480421A601A68C4F2010402F422
:1015E00080420292029A28F003024FF6084C2244ED
:1015F000CFF6FF7C52F80C3007F00C060F25B540F3
:10160000AB43019D05FA06F6334342F80C30A2685D
:101610004B6842EA090643F60C4CDD0258BF22EA49
:101620000906A660C4F2010CDCF800209D0242EA23
:10163000090658BF22EA0906CCF8006062689D03DB
:1016400042EA090658BF22EA090666602268DB03FF
:1016500042EA090658BF22EA0906266058E703B0A5
:10166000BDE8F08F426902EA0103914341EA034178
:1016700081617047002A08BF09048161704700003A
:1016800040F61C20C2F2000000687047002804BF2A
:1016900001207047F0B581B0044690F83D0028B9AC
:1016A000002084F83C00204600F0A8F8242084F8AC
:1016B0003D002068016821F001010160016841F4EA
:1016C00000410160016821F40041016000F092FADC
:1016D000636848F2A16CC0F2010C40F60011C0F240
:1016E0003D0163453CBF48F28041C0F21E01884283
:1016F00002D2012001B0F0BD4DF68361C4F21B316E
:10170000A0FB01122168970CD1F804E04FF4967603
:101710002EF03F0545EA92454D60774348F638166E
:101720000D6AC0F24106A7FB067625F03F07634528
:1017300038BF960C721C3A430A62CA6948F2A06626
:101740004CF6FF77C0F20106B34222EA070C0AD832
:1017500001385A00B0FBF2F001306FF31F3004285B
:1017600098BF042020E0A2681927002A08BF032799
:1017700001385F43B0FBF7F701373F0509D052B19D
:1017800019225A43B0FBF2F00422013062F31F30F9
:1017900008E0012008E003EB4302B0FBF2F0013067
:1017A0006FF31F3040F4004040EA0C00C861086845
:1017B000D4E9072320F0C00010431843086088686C
:1017C00048F2FF3204F10C0790438CCF18431043CA
:1017D000A6698860C86820F0FF0038433043C860BD
:1017E000086840F00100086000202021206484F88F
:1017F0003D10206384F83E0001B0F0BD2DE9F047B4
:1018000086B045F600460068C4F200060025B042E6
:101810000595CDE903550295019502D006B0BDE8C6
:10182000F08743F630070095C4F20207386801AC30
:1018300040F00400386038684FF0120800F00400EF
:1018400000900098009538684FF0030940F00100BF
:10185000386038684FF0040A00F0010000900098EA
:101860004FF40070019006F5D6302146CDE902858F
:10187000CDF81090CDF814A0FFF72AFE4FF4807039
:10188000CDE9010803A880E8200606F5D2302146FC
:10189000FFF71EFE0095386940F400003861386992
:1018A00000F400000090009806B0BDE8F08700004A
:1018B000002804BF0120704770B504460068D4E9D1
:1018C00001124CF6CC43036045F25553036041606E
:1018D0008260FFF7D5FE2168CA68920713D00546DB
:1018E00041F6020604E000BF2168C86880070AD0FC
:1018F000FFF7C6FE401BB042F6D32068C0688007E1
:10190000F2D0032070BD4AF6AA200860002070BD06
:1019100001684AF6AA2200200A60704740F22500BA
:1019200040F61C21C2F20000C2F2000100780A68F1
:10193000104408607047000080B543F60040C4F2D0
:101940000200016841F400710160016841F48061A6
:101950000160016841F480710160032000F08AF8A1
:101960000F2000F005F800F02BF8002080BD0000EB
:10197000B0B540F22502C2F2000240F21001127826
:10198000C2F200014FF47A730968B3FBF2F2044625
:10199000B1FBF2F1084600F039FB0F2C4FF00105C6
:1019A0000CD858B94FF0FF3021460022002500F036
:1019B00035F840F22800C2F2000004602846B0BDAD
:1019C00082B0002043F640010190C4F202014A684F
:1019D00042F480424A604A6802F480420192019ACD
:1019E0000090086840F080500860086800F080505F
:1019F0000090009802B07047002848BF704700F080
:101A00001F01012202FA01F11C2202EAD0004EF26B
:101A10000012CEF2000281507047000010B54EF661
:101A20000C5CCEF2000CDCF80030C3F3022E8EF01A
:101A30000704042C28BF0424BEF103034FF0FF3E2B
:101A40000EFA04F438BF0023A14399400EFA03F3C1
:101A50009A43114300F1604200F00F03090102F5BF
:101A60006442043B6344002848BF03F10C02117038
:101A700010BD00004EF60C51CEF200010A684FF680
:101A8000FF031A4060F30A2242F0806040F0FD70CC
:101A900008607047002804BF012070472DE9F0411D
:101AA00043F60808C4F202080446D8F8F8030D46C5
:101AB00000F00700814207D988F8F853D8F8F803F6
:101AC00000F00700A84276D12068810717D54107AA
:101AD00005D5D8F8001041F4E051C8F8001001070E
:101AE00005D5D8F8001041F46041C8F80010D8F8C6
:101AF0000010A26821F0F0011143C8F80010C007DF
:101B00003FD1D8F8F80300F00700854207D288F8E3
:101B1000F853D8F8F80300F00700A8424BD120682A
:101B2000410707D5D8F80010E26821F4E0511143CD
:101B3000C8F80010000708D5D8F80000216920F483
:101B4000604040EAC100C8F8000000F07BF8D8F817
:101B5000001047F69842C1F30311C0F60002515C31
:101B600040F2100220FA01F140F22800C2F2000017
:101B70000068C2F200021160FFF7FAFE0020BDE823
:101B8000F0816068811E022907D258F8081C89017B
:101B90005CBF0120BDE8F08110E0012807D158F8B2
:101BA000081C89035CBF0120BDE8F08106E058F8FD
:101BB000081C890702D40120BDE8F081D8F8001084
:101BC00021F003010843C8F80000FFF759FD06465D
:101BD00041F28837D8F80000616800F00C00B0EBE3
:101BE000810F8ED0FFF74CFD801BB842F2D9032045
:101BF000BDE8F08140F2100043F60801C2F2000097
:101C0000C4F202010068096847F6A842C1F38221C4
:101C1000C0F60002515CC8407047000040F210005E
:101C200043F60801C2F20000C4F20201006809682C
:101C300047F6A842C1F34231C0F60002515CC840E9
:101C40007047000010B543F60404C4F20204616852
:101C5000C1F3810142F20040C0F2F400DFE801F07C
:101C60000203080210BD41F20020C0F27A0010BD4C
:101C7000216801F03F02216823684902C3F38811FB
:101C800005D4A1FB00010023FEF79AFA06E041F219
:101C90000020C0F27A004843B0FBF2F02168022233
:101CA000C1F3014102EB4101B0FBF1F010BD0000B6
:101CB000002804BF012070472DE9F04182B004469E
:101CC000007843F60006C007C4F2020649D0B068A7
:101CD00000F00C00042809D13068800341D5606809
:101CE00000283ED1012002B0BDE8F081B06800F0CC
:101CF0000C00082802D170684002EDD46568306895
:101D0000B5F5A02F05D0B5F5803F09D140F480305E
:101D10000CE040F480203060306840F4803005E012
:101D200020F480303060306820F480203060FFF78D
:101D3000A7FC002D054611D03068800311D4FFF7B1
:101D40009FFC401B6428F7D928E100BFFFF798FCEF
:101D5000401B64284FF0030000F2E08030688003ED
:101D6000F4D4207880071BD5B06810F00C0F09D090
:101D7000B06800F00C00082840F0858070684002D0
:101D800000F181803068800703D5E068012840F0C9
:101D90009A803068216920F0F80040EAC100306084
:101DA0002078000734D42078400746D4A5695DB375
:101DB000B06800F00C00082840F09C80012D00F075
:101DC00082807068E16900F480028A427BD1216AD6
:101DD00000F03F028A4276D147F6C071626A014044
:101DE000B1EB821F6FD1A16A4FF6FF73C90399430C
:101DF00000F44032A1F580318A4264D1E16A00F0FA
:101E00007060B0EB016F5ED1002002B0BDE8F081E0
:101E1000606900285BD00020C4F247200121C0F88F
:101E2000801EFFF72DFC0546706F8007BBD4FFF7BF
:101E300027FC401B0228F7D9B0E0306C5FEAC008ED
:101E40000AD400200190306C40F080503064306C37
:101E500000F080500190019847F20007C4F200079B
:101E60003868C00526D4386840F480703860FFF7C1
:101E700007FC05463868C0051CD4FFF701FC401B71
:101E80000228F7D98AE0E068002840F20000C4F296
:101E9000472053D001210160FFF7F2FB054600BF48
:101EA000306880073FF575AFFFF7EAFB401B02285B
:101EB000F6D973E0A568306F052D51D0012D56D1AC
:101EC00040F0010059E0012002B0BDE8F08100209F
:101ED000C4F247200021C0F8801EFFF7D1FB054661
:101EE000706F80077FF55FAFFFF7CAFB401B0228CA
:101EF000F6D953E00027C4F2472700203866FFF7E1
:101F0000BFFB022D05460DD1306880015DD5FFF77E
:101F1000B7FB401B02284FF00300F5D902B0BDE823
:101F2000F08100BF306880017FF56EAFFFF7A8FB3E
:101F3000401B02284FF00300F4D9EFE700210160B5
:101F4000FFF79EFB054600BF306880077FF528AF8E
:101F5000FFF796FB401B02284FF00300F4D9DDE7A2
:101F600040F004003067306F40F0010005E020F0E1
:101F700001003067306F20F004003067FFF780FB0E
:101F8000002D054641F2883713D000BF306F80071F
:101F900012D4FFF775FB401BB842F7D9032002B0FB
:101FA000BDE8F081FFF76CFB401BB8424FF0030027
:101FB000B4D8306F8007F5D4B8F1000F3FF5F6AE16
:101FC000306C20F080503064F0E604F11C052FCD19
:101FD000084340EA8210D9034FF6FF729143A1F5FE
:101FE000803140EA05600843706001203866FFF7E1
:101FF00047FB0446306880013FF506AFFFF740FB22
:10200000001B02284FF00300F4D987E7411E00208F
:10201000B0EB116F1CBF012070474EF21002CEF2E0
:10202000000251604EF62351CEF20001F0230B70F6
:1020300007219060116070472DE9F04F81B0044690
:1020400090F84200202809D18B4600294FF001006A
:1020500018BF002A06D101B0BDE8F08F022001B000
:10206000BDE8F08F00202221606484F84210012135
:102070001D46216360631646FFF702FBA685E685D1
:10208000A1688046B1F5805F02D12069002857D051
:102090005E464FF0000B4FF00009A5F80090E08D70
:1020A000002842D0DDF828A00AF1010702E000BFB5
:1020B000E08DD0B320680168C90608D5CDF800903E
:1020C000016800914168009100992988D1BB01689D
:1020D00089061BD556B1A168B1F5805F0DD009B94D
:1020E000216951B1406800F07F0007E04068002698
:1020F0006FF35F202BF8020B02E0406806F8010B3B
:10210000288801302880E08D0138E085002FCFD06D
:10211000FFF7B6FA0146BAF1000F4FF0030009D0FD
:10212000A1EB08015145C3D904E0A08DE18D401A0F
:1021300028800020202184F8421001B0BDE8F08FF3
:102140000026A8E702206063F3E7000090F8423021
:10215000202B1CBF0220704700294FF0010318BF3D
:10216000002A01D11846704703630023436381624C
:1021700022218285C285436480F84210016921B121
:102180000168CA6842F48072CA6001684A6942F014
:1021900001024A61CA6842F02002CA60026B012A49
:1021A0001CBF0120704781B0002200920A68009293
:1021B00049680091009900BF016851E8031F026857
:1021C00041F0100142E80313002BF5D1002301B0C8
:1021D00018467047006844F60042C4F2000290427C
:1021E00018BF7047084602F03FB900007047000072
:1021F000B0B582B001680A68CC684B6902F02F055F
:10220000202D04F0200505D125B102B0BDE8B04075
:1022100002F0D4B95FEA027C1EBF03F0010E04F4A1
:10222000907313EB0E0340D1036BD50618D5012B29
:1022300016D114F0100313D0002201920A68019203
:102240004A680192019A4969490647D4818DC28D35
:10225000C38D002B18BF914240F01A8102B0B0BD6F
:1022600013062AD514F0800327D090F84120212AA4
:10227000F4D18268B2F5805F03D10269002A00F0D0
:102280003A81026A531C036212784A60C28C013A96
:102290001304C284E2D1C86820F08000C860C86816
:1022A00040F04000C86002B0B0BDD10718BF14F4C0
:1022B000807167D151076BD471E05206CED514F00E
:1022C0004002CBD0CA6822F04002CA60202180F8C8
:1022D000411002B0BDE8B04000F000BBC26B116815
:1022E00049688BB2002B42D0858DAB423FD2C1856D
:1022F000D169B1F5807F33D0016851E8031F0268CE
:1023000021F4807142E80313002BF5D1016851E8F4
:10231000051F026821F0010142E80513002BF5D1E9
:10232000016851E8051F026821F0400142E80513E9
:10233000002BF5D1202180F842100021016300BF5D
:10234000016851E8031F026821F0100142E80313FD
:10235000002BF5D1C16B04460846FFF767F820460D
:1023600002214163818DC28D891A89B2B9E0818DC4
:1023700099427FF473AFD269B2F5807F7FF46EAF7C
:102380000222ADE0416C41F001014164510706D5E4
:10239000BEF1000F03D0416C41F00201416491078E
:1023A00006D5BEF1000F03D0416C41F00401416439
:1023B000BCF1000F06D55EEA050103D0416C41F087
:1023C00008014164416C00293FF448AF910604D5EF
:1023D0001DB1044602F0F2F8204601684969426CDA
:1023E00001F0400102F0080289184AD0016851E862
:1023F000031F026821F4907142E80313002BF5D10A
:10240000016851E8051F026821F0010142E8051347
:10241000002BF5D1016B01290AD100BF016851E8F9
:10242000031F026821F0100142E80313002BF5D1CD
:10243000202180F8421000210163016849694906A2
:1024400054D500BF016851E8051F026821F0400122
:1024500042E80513002BF5D1C16B002946D044F2A8
:10246000B152C0F60002044608460A65FFF71EF89E
:1024700000283FF4F3AEE06B016D02B0BDE8B04060
:1024800008470446FFF7B2FE0020606402B0B0BD0A
:10249000891A00BF026852E8032F036822F4907281
:1024A00043E80325002DF5D1026852E8052F0368A3
:1024B00022F0010243E80525002DF5D1202280F805
:1024C00042200022026300BF026852E8032F036823
:1024D00022F0100243E80325002DF5D1022289B233
:1024E000426302B0BDE8B040FFF774BE02B0BDE881
:1024F000B040FFF77BBE026A32F8023B6FF35F2306
:102500004B600262C2E60000002804BF0120704751
:1025100010B5044690F8410028B9002084F8400026
:10252000204600F021F8242084F841002068C1688A
:1025300021F40051C160204602F0A0F82068016932
:1025400021F490410161416921F02A014161C16892
:1025500041F40051C16000202021606484F84110E2
:1025600084F84210606310BD2DE9F04186B0006828
:1025700044F6FF71C4F2000188424FF0000105915A
:10258000CDE90311CDE9011135DC44F20041C4F27B
:10259000000188426CD044F60001C4F20001884278
:1025A00000F0C18044F60041C4F20001884240F0CE
:1025B0001681002043F630010090C4F202010A693E
:1025C000342442F400220A610A6902F400220092D3
:1025D000009A00900A6842F001020A60096802222B
:1025E00001F00101009100990321CDE902200820AA
:1025F00001910491E4E045F20001C4F20001884237
:1026000052D041F20001C4F20101884200F0B580CD
:1026100041F20041C4F20101884240F0E080002014
:1026200043F630010090C4F202014A69472442F0A7
:1026300020024A614A6902F020020092009A00904A
:102640000A6842F004020A60096801F0040100917E
:102650000099C02101910221CDE9021003200490CC
:10266000082005900020C4F2020000F50060ABE0F5
:10267000002043F630010090C4F202010A692624CA
:1026800042F400320A610A6902F400320092009AB0
:1026900000900A6842F001020A60096801F0010135
:1026A000009100990C2184E0002443F6300000944E
:1026B000C4F202000169002541F480110161016941
:1026C000C4F2020501F480110091009900940168A0
:1026D0004FF0020841F0040101600168032601F097
:1026E00004010091009900940168082741F0080155
:1026F0000160006801A900F00800009000984FF404
:102700008050019005F50060CDE90284049605979C
:10271000FEF7DEFE0420CDE9010803A8D0C005F5D0
:102720004060352450E0002043F630010090C4F2B0
:1027300002010A69272442F480220A610A6902F42C
:1027400080220092009A00900A6842F002020A6019
:10275000096801F00201009100994FF44061019174
:102760000221CDE9021003200490072005900020EB
:10277000C4F2020000F5806026E0002043F630013C
:102780000090C4F202014A69252442F010024A6115
:102790004A6902F010020092009A00900A6842F022
:1027A00001020A60096801F00101009100994FF4EB
:1027B000C06101910221CDE902100320049007209D
:1027C00005900020C4F2020001A9FEF781FE204618
:1027D00000210022FFF722F92046FFF70DF906B08D
:1027E000BDE8F081704700002DE9F04381B0044658
:1027F00090F84100202809D1884600294FF00100B7
:1028000018BF002A06D101B0BDE8F083022001B054
:10281000BDE8F0830020606421201D4684F841005B
:102820001646FEF72DFFA684E684A1680646B1F59C
:10283000805F02D1206900284DD0C1464FF00008CA
:10284000E08C40B36F1C0BE0B9F1000F1AD019F8FF
:10285000010B21684860E08C0138E084E08CD0B145
:10286000206800680006EFD4002FF9D0FEF708FFBB
:1028700001464FF0030045B3891BA94225D82068C3
:10288000C068EDE738F8020B21686FF35F204860FD
:102890004FF00009DFE720680068400614D46F1C81
:1028A00004E000BF2068006840060DD4002FF9D076
:1028B000FEF7E6FE01464FF0030035B1891BA94241
:1028C00003D82068C068EDE70020202184F841107B
:1028D00001B0BDE8F0834FF00009B1E77047000098
:1028E000FEE7000010B540F60421C2F2000191E8B5
:1028F0000C50D1E9044180E80C50C0E9044110BDFE
:1029000040F60420C2F200000021C0E90011C0E935
:102910000211C0E9041140F21850C2F20000016037
:1029200040F2D120C2F200000170704770B588B04B
:102930000020ADF8060040F2801048F29111C2F27A
:102940000000C0F60001082264236424FFF74CFF56
:1029500020B10124042C40F0AF80BFE040F2801091
:102960000DF10906C2F200000DF1060331461722EF
:102970000094FFF761FB20B10224042C40F09C80FE
:10298000ACE0BDF80600172840F093809DF80900E0
:102990000424602840F08E809DF80A00032840F04F
:1029A00089809DF80B00122840F084804FF6FF705C
:1029B00000214AF2010200BF735C5840002300BFAF
:1029C000044682EA5000E50708BF6008072B03F1C0
:1029D0000103F5D301311529EED1BDF81E10814256
:1029E00079D1BDF80C00BDF80E10BDF81020C0BAAA
:1029F000C9BAD2BA00EE100A9FED461AB8EEC00A64
:102A00009FED452A03EE101A04EE102ABDF81800B7
:102A100020EE010A40F60425B8EEC33AB8EEC44AE7
:102A200020EE020AC2F2000523EE013A24EE014A2A
:102A3000C0BA23EE023A24EE022A85ED030ABDF85D
:102A40001C2000EE100A85ED052ABDF81A10B8EE1C
:102A5000C00A9FED322A12BA20EE010A0024C9BA38
:102A600020EE020AA4EB224085ED043A03EE101A90
:102A700085ED000A00EE100AB8EEC33AB8EEC00ABF
:102A800023EE013A20EE010A9FED251A20EE020AFC
:102A9000DFED240A30EE010A23EE023A30EE200A7E
:102AA00085ED013A03F02EFD85ED020A042C03D1D9
:102AB00014E00324042C11D0E4B9FEF7E1FD40F248
:102AC0001851C2F20001086040F2D120C2F20000A9
:102AD000002404701AE00524042CEDD140F2D1202A
:102AE000C2F2000001780131CAB2032A017001D993
:102AF00004240BE0FEF7C4FD40F21851C2F20001BD
:102B00000968401AB0F5FA7F88BF0624204608B04D
:102B100070BD00BF000000380000FA4400003443DC
:102B2000AE4751C00000B443002818BF002900D1AF
:102B3000704740F25802C2F200021378002B18BF0F
:102B400070474900117040F25C01C2F20001086058
:102B50007047000040F2580CC2F2000C9CF80000D4
:102B6000002808BF704740F23001C2F2000140F275
:102B70005C020B68C2F200021268013393420B60E0
:102B800000D2704700220A60421E40F20040C4F2A8
:102B900002004FF480518CF80020FEF763BD000066
:102BA00040F20040C4F202004FF480510122FEF7CF
:102BB00061BD000040F20040C4F202004FF48051B9
:102BC000FEF750BD80B540F2680046F20041C2F207
:102BD0000000C4F200010422002380E80E0000F18E
:102BE0000C014FF4602C4FF4800E81E80850836193
:102BF0008383FEF767FB002808BF80BDBDE88040E7
:102C0000FEF722BA2DE9F04387B0002743F63000E3
:102C10000697CDE90477CDE902770197C4F2020067
:102C2000016840F2004941F0800101600168C4F28E
:102C3000020901F0800101910199019701680022C8
:102C400041F00101016001684FF4805601F001017B
:102C5000019101990197016841F002010160016849
:102C600001F00201019101990197016841F004010D
:102C70000160016801F00401019101990197016867
:102C800041F00801016000684FF4805100F0080035
:102C9000019001984846FEF7EDFC09F5806528464D
:102CA0004FF4807100224FF48078FEF7E3FC029627
:102CB00002AE012448463146CDE903470597FEF7A9
:102CC00007FC28463146CDE90284CDE90477FEF7BA
:102CD000FFFB07B0BDE8F08380B540F2900045F6F9
:102CE0000041C2F20000C4F2000148F2A0620023D9
:102CF0004FF4804CC0F2010280E80E00C0E9033CB2
:102D0000C0E90533C0E90733FEF7C0FC002808BF5F
:102D100080BDBDE88040FEF797B9000080B540F265
:102D2000E40043F20001C2F20000C4F200010322F9
:102D300040F6FF7380E80E00FEF7BAFD002808BFDA
:102D400080BDBDE88040FEF77FB9000080B540F24D
:102D5000C81044F60041C2F20000C4F20001002392
:102D60004FF00C0C4FF4E13280E80E00C0E9033361
:102D7000C0E905C3C361FFF7C7FB002808BF80BDDA
:102D8000BDE88040FEF760B980B540F2102045F202
:102D90000001C2F20000C4F2000100234FF00C0C4D
:102DA0004FF4E13280E80E00C0E90333C0E905C307
:102DB000C361FFF7A9FB002808BF80BDBDE88040C4
:102DC000FEF742B980B540F2F00041F20001C2F2D4
:102DD0000000C4F2010100234FF00C0C4FF4165216
:102DE00080E80E00C0E90333C0E905C3C361FFF703
:102DF0008BFB002808BF80BDBDE88040FEF724B9EA
:102E000080B540F2381044F20041C2F20000C4F232
:102E1000000100234FF00C0C4FF4965280E80E0096
:102E2000C0E90333C0E905C3C361FFF76DFB0028A8
:102E300008BF80BDBDE88040FEF706B980B540F20E
:102E4000801044F60001C2F20000C4F20001002329
:102E50004FF00C0C4FF4965280E80E00C0E903339B
:102E6000C0E905C3C361FFF74FFB002808BF80BD61
:102E7000BDE88040FEF7E8B880B540F2582041F246
:102E80000041C2F20000C4F2010100234FF00C0C1B
:102E90004FF4165280E80E00C0E90333C0E905C3C1
:102EA000C361FFF731FB002808BF80BDBDE880404B
:102EB000FEF7CAB8FEE70000FEE7000000000000D1
:102EC000002818BF002900D170472DE9F04F81B0CC
:102ED0002DED0C8B84B0B0EE41BAF0EE61BA9FEDEF
:102EE000861BB0EE439A58EC119BB0EE42AACDE996
:102EF000020151EC100B4A464346F0EE639AF0EEA5
:102F000062AAFDF72EFC9FED7E0B54EC105B2A4667
:102F10002346FDF798FC41EC180B51EC1B0B4A467D
:102F20004346FDF71EFC2A462346FDF78CFCCDE9FF
:102F3000001051EC1A0B4A464346FDF712FC2A4694
:102F40002346FDF780FC9FED700B41EC1B0B51EC11
:102F5000190B53EC102BFDF776FCB0EE480AF0EE9F
:102F6000680A41EC190B03F027FBB0EE40AAB0EE63
:102F7000490AF0EE60AAF0EE690A03F0DDF9B0EE5E
:102F800040CAB0EE480AF0EE60CAF0EE680A03F0FC
:102F9000D3F9B0EE40DAB0EE490AF0EE60DAF0EEC6
:102FA000690A03F009FB51EC1D0B53EC102BFDF7E4
:102FB000D8FBB0EE4B0AF0EE6B0A82468B4603F06C
:102FC000BBF953EC102B50465946FDF7CAFB064699
:102FD0000F4651EC1A0B53EC1C2BFDF7C2FB32468B
:102FE0003B46FDF717FB41EC100B02F089FDB0EEFC
:102FF00040AAB0EE4B0AF0EE60AAF0EE6B0A03F0C6
:10300000DBFAB0EE40BAB0EE490AF0EE60BAF0EE8C
:10301000690A03F0D1FA51EC1B0B53EC102BFDF7AE
:10302000A0FBB0EE480AF0EE680A06460F4603F031
:1030300083F953EC102B30463946FDF792FBB0EE86
:10304000490AF0EE690A41EC1B0B03F075F9B0EE8A
:10305000409AB0EE480AF0EE609AF0EE680A03F08B
:10306000ABFAB0EE408AB0EE4A0AF0EE608AF0EEBB
:103070006A0A03F0A1FA53EC102B51EC180BFDF780
:1030800070FB02460B4651EC190BFDF764FB41EC5B
:10309000110BB0EE4B0AF0EE6B0A03F04DF8DDE9D0
:1030A000001053EC102BFDF7B5FA06460F4651EC15
:1030B0001A0B2A462346FDF754FB4A464346FDF7C2
:1030C000C2FB41EC100B0298394680ED000B3046F4
:1030D0002A462346FDF745FB4A464346FDF7B3FB28
:1030E00041EC100B039880ED000B04B0BDEC0C8B91
:1030F00001B0BDE8F04F7047182D4454FB21094042
:10310000000000000080664000000000AE4D584105
:1031100040F2B820C2F200000088704710B540F2BB
:103120003851C2F2000191E80C50D1E9044180E825
:103130000C50C0E9044110BD40F29070C2F2000092
:1031400090ED000B40F29870C2F2000090ED001B71
:103150007047000040F29071C2F200010020C1E906
:10316000000040F29871C2F20001C1E9000040F293
:10317000B821C2F20001088040F23851C2F20001C9
:10318000C1E90000C1E90200087440F22401C2F262
:10319000000150220A7040F20831C2F20001C1E978
:1031A000000040F2A071C2F20001C1E9000040F24B
:1031B000E871C2F20001C1E9000040F28071C2F280
:1031C0000001C1E9000040F26851C2F20001C1E90A
:1031D000000040F27871C2F20001C1E900007047BE
:1031E0005028A8BF502040F2240120EAE070C2F22B
:1031F00000010870704700002DE9F0472DED048BA9
:1032000082B0B0EE409AF0EE609A9FED3F0B56EC24
:10321000197B54EC108B9FED3E0BE50F3146B0EE61
:10322000418A65F3DF7153EC102B3846F0EE618A6A
:10323000FDF7C9FB002859D159EC18AB9FED360BAF
:10324000494665F3DF7153EC102B5046FDF76AFBDE
:1032500000284BD03846314642462346FDF7CEFB88
:1032600006460028504649464246234618BF0126D6
:10327000FDF7C4FB002818BF012006423DD140F2F3
:103280009070C2F2000080ED009B40F29870C2F294
:10329000000080ED008B40F23850C2F200000021A7
:1032A000017440F20830C2F20000C0E9001140F29F
:1032B000A070C2F20000C0E9001140F2E870C2F252
:1032C0000000C0E9001140F28070C2F20000C0E9C5
:1032D000001140F26850C2F20000C0E9001140F253
:1032E0007870C2F20000C0E9001106E00CA03A4676
:1032F00033468DED008B02F093FB02B0BDEC048BE6
:10330000BDE8F08700BF00BF000000000000000023
:103310000000000000805640000000000080664071
:103320005B4E4156204354524C5D20496E76616C91
:1033300069642074617267657420636F6F72646979
:103340006E617465733A206C61743D252E36662C6F
:10335000206C6F6E3D252E36660D0A0000000000C1
:103360002DE9F04F81B02DED108B98B09FED108BB3
:1033700058EC10AB55EC180B9FED0F0BEC0F4146C2
:10338000B0EE43CAB0EE42AAB0EE41BA139064F375
:10339000DF7153EC102B5046F0EE63CAF0EE62AAD8
:1033A000F0EE61BAFDF70FFB002840F051831FE0FB
:1033B00000000000000000000000000000805640F7
:1033C00000000000008066400000000000807640A1
:1033D000182D4454FB210940000000000000E03F8C
:1033E000000000000000F03F00000000AE4D58411A
:1033F0001FED0D0B56EC1B7B314659EC10BB64F3F3
:10340000DF7138465A464B46FDF7DDFA002840F09A
:103410001F83139A51EC1A0B2B46CDE91101FDF7CE
:103420009CFA002840F014831FED199BDDE911017F
:1034300053EC192BCDE90E23FDF78FFA002800F08D
:10344000078340F29070C2F2000090ED00BB40F2A2
:1034500098701FED210BC2F200008DED0ACB90EDAC
:1034600000CB53EC102B5046414606940797174665
:103470000D961E46FDF775F95A464B46FDF7E3F9E2
:10348000109555EC1B4B41EC1A0B204629463A4649
:103490003346FDF766F95A464B46FDF7D4F941EC41
:1034A0001B0B2046294652464346FDF754F93A463F
:1034B000334608970996FDF754F95A464B46FDF7EF
:1034C000C2F9079A0D9B04460D4651EC1C0BFDF703
:1034D00042F93A463346FDF744F95A464B46FDF762
:1034E000B2F91FED430B064658EC10AB0F4641EC0A
:1034F0001C0B2046294652464346FDF732F941EC63
:103500001E0BB0EE4E0AF0EE6E0A03F055F8B0EE68
:1035100040DAB0EE4E0AF0EE60DAF0EE6E0A03F03A
:103520004BF8B0EE40EAB0EE4A0AF0EE60EAF0EE98
:103530006A0A02F001FFB0EE40FAB0EE4B0AF0EE7C
:1035400060FAF0EE6B0A02F0F7FE51EC1F0B53EC41
:10355000102BFDF706F904460D4630463946524613
:103560004346CDF814A0CDF81C80FDF7FAF841ECE5
:103570001F0BB0EE4F0AF0EE6F0A03F01DF853EC8C
:10358000102B20462946FDF7ECF8B0EE4F0AF0EE7E
:103590006F0A04460D4603F00FF853EC102B20463B
:1035A0002946FDF7DEF804460D4651EC1D0B53ECA1
:1035B0001E2BFDF7D6F822462B46FDF72BF81FED04
:1035C000780B07465AEC105B2A4653460E46FDF729
:1035D000FAF900281CBF56462F46139CDDF84080A0
:1035E0003846314622464346FDF7B7F900281CBF4E
:1035F0004646274646EC107B03F042F8B0EE40DA30
:10360000284651463A463346F0EE60DAFDF7A3F815
:1036100041EC100B03F034F8B0EE401AB0EE4D0A56
:10362000F0EE601AF0EE6D0A02F086FD51EC100B20
:1036300002460B46FCF7EEFF1FED950B53EC102BEB
:10364000FDF78FF8B0EE4C0AF0EE6C0A0D908A464A
:1036500002F0B2FFB0EE40DAB0EE4B0AF0EE60DA04
:10366000F0EE6B0A02F068FE51EC1D0B53EC102BD0
:10367000FDF777F8B0EE4A0AF0EE6A0A41EC1D0B4E
:1036800002F05AFEB0EE40EAB0EE4B0AF0EE60EA0D
:10369000F0EE6B0A02F090FFB0EE40FAB0EE4A0A8C
:1036A000F0EE60FAF0EE6A0A02F086FFB0EE40AA91
:1036B000B0EE4B0AF0EE60AAF0EE6B0A02F03CFEB0
:1036C00051EC1A0B53EC102BFDF74BF8B0EE4C0AF3
:1036D000F0EE6C0A04460D4602F02EFE53EC102B61
:1036E00020462946FDF73DF804460D4651EC1E0BD9
:1036F00053EC1F2BFDF735F822462B46FDF72BF830
:1037000041EC110BB0EE4D0AF0EE6D0A02F014FD23
:1037100051EC100B5A464B46FDF723F8DDE9082320
:10372000FDF791F80E9E0F9F32463B46FCF772FF65
:1037300041EC100BB0EE491AF0EE691A02F060FE8F
:10374000DDE9110153EC102BFDF705F85A464B4605
:1037500041EC1A0BFDF7E6F880B99FEDE19B00BF45
:1037600051EC1A0B53EC192BFCF754FF5A464B46FD
:1037700041EC1A0BFDF727F90028F1D19FEDDA0B88
:10378000DDF8349055EC104B51EC1A0B22462B46C9
:103790004AEC199BFDF7FCF89DED0ABB70B900BF20
:1037A00051EC1A0B32463B46FCF734FF22462B46BF
:1037B00041EC1A0BFDF7D1F80028F1D140F2385452
:1037C000139A109BC2F200044846514684EC049BB5
:1037D000FDF7F9F840F2B8250028C2F2000500F024
:1037E000418140F20838C2F2000898ED000B002039
:1037F00057EC1A6B207453EC102B30463946CDF839
:1038000044A013961297FCF7A6FF9FEDB90B044650
:103810000D4653EC102B30463946FCF7A2FF059AB3
:10382000079B06460F4620462946FCF79AFF32467C
:103830003B46FCF7EFFE40F2A079C2F2000999ED99
:10384000000B02460B4651EC100BFCF7E3FE9FED1C
:10385000AA0B044657EC106B32463B460D46FDF76B
:10386000B2F89FEDA70B00281CBF3D46344656EC2E
:10387000107B204629463A463346FDF7A4F8002837
:103880001CBF2E46274646EC107B53EC1B2B3846BC
:10389000314689ED000B88ED00ABFCF75CFF044678
:1038A00041EC1A0B40F2E870C2F2000090ED000B00
:1038B000204653EC102B0D46FCF74DFF9FED920B6D
:1038C00006460F4653EC102B204629460A920E93CB
:1038D000FCF747FF02460B4630463946FCF79AFE96
:1038E000024640F28070C2F2000090ED000B0B46E1
:1038F00051EC100BFCF78EFE044640F22400C2F29D
:10390000000090F900000D46FDF794F841EC100B13
:1039100006468DED140B9DF857000F4680F0800091
:103920008DF85700DDE914B92046294632463B465A
:10393000FDF749F80028AA46A046204629465A46DF
:103940004B460F9718BFBA46109618BFB046FDF702
:1039500004F800281CBFCA46D8464AEC108B40F237
:103960008070C2F2000080ED000B40F2E870C2F2FD
:10397000000080ED00AB069812999FED650B60F397
:10398000DF71139853EC102BFDF71DF8002845D17B
:1039900040F26850C2F2000090ED000B0D9C119EA9
:1039A00053EC102B20463146FCF7D5FE0A9A0E9BAD
:1039B00081460D4620463146FCF7D3FE4A462B464B
:1039C000FCF728FE40F27876C2F2000696ED000B76
:1039D00002460B4651EC100BFCF71CFE41EC100BA1
:1039E000109F86ED000B0F9E3A46334604460D4667
:1039F000FCF7E9FF9FED380B00285BEC109B20469D
:103A000029464A465B4604BF2E462746FCF7A5FFDB
:103A100000281CBF5E464F4646EC187B40F278708B
:103A2000C2F2000080ED008B40F26850C2F200004C
:103A300080ED009B51EC180BFDF70DF840F2B82516
:103A4000C2F20005287040465146FDF704F83CE0FC
:103A50003EA0524643468DED00BB8DED02AB01F01A
:103A6000DFFF33E0207C20B92BA04A46534601F00B
:103A7000D7FF012040F278712074C2F200010020CB
:103A8000C1E9000040F28071C2F20001C1E900000A
:103A900040F20831C2F2000181ED00AB8DED16BBA2
:103AA0009DF85F1081F080018DF85F109DED160B81
:103AB00040F2E871C2F2000181ED000B40F2685162
:103AC000C2F2000181ED009B2870687018B0BDEC57
:103AD000108B01B0BDE8F08F000000000000000076
:103AE00000000000008076C000000000008066C07A
:103AF0007B14AE47E17A843F000000000000544090
:103B000000000000000054C09A9999999999B93F12
:103B100000000000000040405B4E415620435452DC
:103B20004C5D204172726976656420617420746115
:103B300072676574212044697374616E63653A200D
:103B4000252E3266206D0D0A000000005B4E4156A6
:103B5000204354524C5D20496E76616C6964206943
:103B60006E7075743A206C61743D252E36662C207B
:103B70006C6F6E3D252E36662C2068656164696E1B
:103B8000673D252E32660D0A0000000070470000D8
:103B9000002804BF002070472DE9F04F83B040F2A9
:103BA0007471C2F200010A7840F2E928002AC2F2D8
:103BB000000800F0138200220A7040F21031C2F2B5
:103BC00000010D78002D00F0098240F21034C2F29D
:103BD000000483462046FCF748FB7B2D01462AD192
:103BE000022928D3081910F8010C7D2823D140F2AE
:103BF0001030C2F2000000F065FE80B30FF24041C9
:103C0000814600F02DFE054600F052FE40F2505A6B
:103C1000C2F2000AF8B12E69EEB100240FF230476B
:103C200057F824103046FCF727FB40B30134062C2C
:103C3000F6D1062024E0081910F8013C47F6CD50D3
:103C4000C0F600002A4601F0EBFE47F61660C0F60B
:103C500000002146BFE100208AF800001DE000F0CE
:103C6000E1FD38B1014647F66060C0F6000001F0A2
:103C7000D7FEA8E147F61770C0F60000A1E1E0B258
:103C800006288AF8000008D1484600F09BFD296903
:103C90000FF2D43001F0C4FE95E100250FF2F031AF
:103CA00048468DF80B5000F0DBFD064600F0F6FDAF
:103CB00098B101208DF80B00304600F0C1FD51ECA9
:103CC000100BFCF7C8FE05466428A8BF642515F153
:103CD000640FD8BF6FF0630501E08DF80B509DF8BD
:103CE0000B008AF80150012821D148F20701002574
:103CF000C0F6000148468DF80B5000F0B1FD0646B5
:103D000000F0CCFDA8B101208DF80B00304600F08A
:103D100097FD51EC100BFCF79EFE05466428A8BFEA
:103D2000642515F1640FD8BF6FF0630503E0DBA5D0
:103D300043E18DF80B509DF80B008AF802500128E2
:103D40003AD148F25D010024C0F6000148468DF8E2
:103D50000B4000F085FD054600F0A0FD88B3012072
:103D60008DF80B00284600F06BFD9FEDAD1B57460C
:103D700054EC115B56EC10AB504631462A462346B4
:103D8000FCF721FE9FEDA80B00281CBF2646AA4683
:103D900055EC104B5046314622462B46FCF713FE9D
:103DA00000281CBF3546544620462946BA46FCF733
:103DB00084FE00EE100A08E047F68965C0F60005AB
:103DC000FBE09FEDC20A8DF80B409DF80B008AEDD9
:103DD000010A012838D148F22E010024C0F6000162
:103DE00048468DF80B4000F03BFD054600F056FDBF
:103DF00078B301208DF80B00284600F021FD9FEDDF
:103E00008C1B55EC107B56EC114B3846294622464C
:103E10003346FCF7D8FD9FED880B00281CBF3546C4
:103E2000274654EC106B3846294632462346FCF7A9
:103E3000CAFD00281CBF2C463E4630462146FCF7F2
:103E40003CFE00EE100A08E047F67375C0F6000568
:103E5000B3E09FED9E0A8DF80B409DF80B008AEDB4
:103E6000020A012838D148F252010024C0F60001AC
:103E700048468DF80B4000F0F3FC054600F00EFDBF
:103E800078B301208DF80B00284600F0D9FC9FED97
:103E9000641B55EC107B56EC114B384629462246E4
:103EA0003346FCF790FD9FED600B00281CBF3546A4
:103EB000274654EC106B3846294632462346FCF719
:103EC00082FD00281CBF2C463E4630462146FCF7AA
:103ED000F4FD00EE100A08E047F6E865C0F60005BC
:103EE0006BE09FED7A0A8DF80B409DF80B008AED90
:103EF000030A01284AD148F223019FED4F0B9FEDA1
:103F00004C1B0DF10B050024C0F6000148462A4663
:103F10008DF80B4000F038F99DF80B008AED040A8B
:103F2000012838D16AA14846002201238DF80B40B0
:103F30000095012400F06EF99DF80B108AF814002A
:103F400071B3002048F274018DF80B00C0F6000137
:103F50004846002201230095012400F05BF99DF8FA
:103F60000B108AF8150011B3484600F02BFC40F204
:103F7000E820C2F2000088F800400470FDF780FBE2
:103F800040F21051C2F20001086026E047F6447585
:103F9000C0F6000511E047F6B965C0F600050CE073
:103FA00047F6CE758AF81440C0F6000505E047F6DE
:103FB000A275C0F600058AF81540484600F002FCDC
:103FC000284603F0BBFC47F6306040F21031C0F6E3
:103FD0000000C2F2000101F023FD584698F80010DD
:103FE00000294FF0000114D040F2505272B6C2F2D4
:103FF0000002D2E90037D2E90265D2E90442C0E901
:104000000037C0E90265C0E9044288F8001062B6D2
:10401000012103B0BDE8F04F0846704700BF00BF64
:10402000000000000080564000000000008056C0E4
:10403000000000000080664000000000008066C0B4
:10404000636F6E74726F6C5F6D6F6465000000006B
:104050001C8000081380000844800008FA7F0008D4
:1040600039800008688000085B50524F544F434F1E
:104070004C5D20496E76616C696420636F6E74726A
:104080006F6C5F6D6F64653A2025730D0A00000048
:104090006D6F76655F737065656400005B50524FAD
:1040A000544F434F4C5D204D697373696E672072A6
:1040B00065717569726564206669656C643A206D26
:1040C0006F76655F73706565640D00000000000029
:1040D00064635F70726F7400B0B540F27455C2F2E1
:1040E000000528464FF40071FCF7B4F840F2103098
:1040F000C2F200004FF40071FCF7ACF840F25050EF
:10410000C2F20000002340F20111C0E90033C0E90F
:104110000233C0E90433818240F2E920C2F2000098
:10412000037040F27470C2F20000037040F210504D
:10413000C2F2000040F2E8240360C2F2000440F240
:10414000C810C2F2000029464FF400722370BDE887
:10415000B040FDF7FBBF000010B540F2E820C2F20E
:1041600000000078002460B1FDF78AFA40F2105197
:10417000C2F200010968401A41F25041884288BFEA
:104180000124204610BD00002DE9F04381B02DED43
:10419000048BB0EE419AB0EE408A1446F0EE619A7C
:1041A000F0EE608A00F05CFB054600F077FB28B378
:1041B00001202070284600F043FB54EC195B57ECBB
:1041C000106B304639462A462346FCF7FCFB59EC77
:1041D000188B00283046394642464B4604BF3C46C1
:1041E0003546FCF7BAFB00281CBF4C46454628461E
:1041F0002146FCF762FC00EE100A03E09FED040A82
:1042000000202070BDEC048B01B0BDE8F08300BF3E
:1042100000000000F0B581B0069F1C46154600F076
:104220001FFB064600F03AFB78B10120387030469B
:1042300000F006FB51EC100BFCF70DFCA042B8BFE0
:1042400004468542C8BF2C4601E000243C7060B2A1
:1042500001B0F0BD2DE9F04F81B02DED108BA6B06F
:10426000002800F0B18040F2F078071DC2F200088B
:104270004FF00009C2CF88F8009090F900A090F9A3
:1042800001B0046905460846FCF704FC41EC100B3C
:1042900030468DED240BFCF7FDFB41EC100B38464E
:1042A0008DED220BFCF7F6FB41EC100B20468DED5B
:1042B000200BFCF7EFFB41EC100B68698DED1E0B3A
:1042C000FCF7E8FB41EC1C0BA869FCF7E3FB41ECB5
:1042D0001D0BE869FCF7DEFB41EC1F0B286AFCF7BD
:1042E000D9FB41EC1E0B686AFCF7D4FB41EC180BC0
:1042F000E86A95F9284095F92960FCF7CBFB41EC79
:10430000190B286BFCF7C6FB41EC1A0B686BFCF72A
:10431000C1FB41EC1B0BA86BFCF7BCFB41EC100B89
:1043200016A880EC069B8DED1C0BCDE914468DED97
:10433000128B9DED240B48F27C028DED020B9DED5E
:10434000220BC0F600028DED040B9DED200B4046C4
:104350008DED060B9DED1E0B4FF4007153468DED58
:10436000080B8DED0ACB8DED0CDB8DED0EFBCDF842
:1043700000B08DED10EB01F063FB4FF60061C8F269
:104380000001084240F2F070C2F2000018BF88F845
:104390000090FBF76AFF01041CD082B240F2C81003
:1043A00040F2F071C2F20000C2F200016423FEF795
:1043B0001BFAC0B1014614A026B0BDEC108B01B0B1
:1043C000BDE8F04F01F02CBB26B0BDEC108B01B066
:1043D000BDE8F08F18A026B0BDEC108B01B0BDE891
:1043E000F04F03F0ABBA40F2C810C2F2000011A1C6
:1043F00002226423FEF7F8F926B0BDEC108B01B061
:10440000BDE8F04FFEF7D6BB5B50524F544F434FC1
:104410004C5D2055415254207472616E736D697405
:10442000206661696C65642C207265743D25640D9D
:104430000A0000000D0A00005B50524F544F434FDA
:104440004C5D2053656E642074656C656D65747297
:1044500079206661696C65643A20656D70747920B5
:104460004A534F4E0D00000070B5411E89B2002620
:10447000B6EB512F18D140F21034B0F5FF7F88BF52
:1044800040F2FF10C2F2000440F274510546C2F23D
:10449000000120462A46FBF7C4FE40F27470C2F2C7
:1044A000000001216655017040F2C81040F27451BD
:1044B000C2F20000C2F200014FF40072BDE8704089
:1044C000FDF744BE7047000080B5FDF727FABDE850
:1044D0008040FEF73FBB000070B592B006AC2046AE
:1044E0003021FBF7B7FE002543F640000595CDE9E6
:1044F0000355CDE901550095C4F20200016802267A
:1045000041F080510160006800F0805000900098F8
:1045100047F200000095C4F20000016841F48041B8
:1045200001600068A82100F48040009000980920F4
:1045300006904FF48030079001200B904FF48000DC
:104540000D9004200E90119020460C96CDE90F1688
:10455000FDF7AEFB08B172B6FEE70F20CDE901060C
:104560004FF4A05004904FF48050059001A805210D
:104570000395FDF78FFA10B172B600BFFEE712B0D7
:1045800070BD00004EF68850CEF20000016841F484
:10459000700101607047000040F2C810C2F20000D4
:1045A000FDF726BE40F21020C2F20000FDF720BE4B
:1045B000806B0021C185FDF719BE000090F8421004
:1045C000222918BF70478268B2F5805F02D1016965
:1045D00000294AD0816AB2F5805F07D00AB9026922
:1045E00022B10268526802F07F0201E0026852685C
:1045F0000A70816A01318162C18D01390A04C18565
:1046000000D070470168CA6822F02002CA60CA68F8
:1046100022F48072CA604A6922F001024A612021B4
:1046200080F8421000214163026B012A18BFFEF797
:10463000D9B881B0016300BF016851E8031F026867
:1046400021F0100142E80313002BF5D101680A683C
:10465000D20606D5002200920A68009249680091AD
:104660000099818D01B0FDF7B5BD0168826A496886
:104670006FF35F2122F8021B8262BDE7B0B50446EA
:10468000006804F108030ECB0569194325F4405571
:104690002A4302616269E3691143C268194349F21E
:1046A0000C639A431143C1604169A26921F44071CE
:1046B00041F20043114340F48062C4F201039A4284
:1046C000416102D1FDF7AAFA01E0FDF793FAE16931
:1046D0004FF69C7563681922C0F6FF75B1F5004F5F
:1046E000A0FB02011CD15A00DB0FFBF769FD48F269
:1046F0001F51C5F2EB11A0FB01235A0905F18053AC
:1047000002FB0300322303EBC000A0FB01014FF4C6
:10471000F87000EA111000EB0210C1F3421118E02A
:104720009A009B0FFBF74CFD48F21F51C5F2EB11AD
:10473000A0FB01235A0902FB0500322303EB001002
:10474000A0FB0101F02000EA511000EB0210C1F3C0
:104750004311084421688860B0BD000040F2F000B9
:10476000C2F20000FDF744BD40F23810C2F2000072
:10477000FDF73EBD40F28010C2F20000FDF738BDEB
:1047800040F25820C2F20000FDF732BDFEE7000003
:10479000B0B10368A3B1D0E901C2624528BF704738
:1047A0008268624508D200BF995C202904D8013292
:1047B00094458260F8D16246624504BF511E816013
:1047C00070470000002808BF7047F0B581B040F284
:1047D00018060446C2F20006002703E07168284666
:1047E0008847DCB1607B25462468C00704D1A868EF
:1047F000002818BFFFF7E6FF687BC00704D12869CF
:1048000010B1716888472F61687B8007E6D4286AF9
:104810000028E3D0716888472F62DFE701B0BDE868
:10482000F040704740F2600040F26401C2F20000C4
:10483000C2F20001006809680844704700000000E7
:104840009FED050B002808BF7047017B082908BFB2
:1048500090ED060B704700BF000000000000F87FDD
:10486000B0B50C46014600284FF0000018BF002CE0
:1048700000D1B0BD8D6845B1296A39B12046FBF73A
:10488000FBFC18B12D68002DF6D1002525B1286A52
:10489000002818BF2846B0BD0020B0BD00280FBFBB
:1048A0000020007B0838B0FA80F018BF400970473C
:1048B00000280FBF0020007B1038B0FA80F018BF2E
:1048C00040097047002804BF0020704710B5044617
:1048D000FBF7CBFC411C204600220023BDE8104022
:1048E000AFF300802DE9F04F87B0054640F2600934
:1048F00040F2640A14460020C2F20009C2F2000A23
:10490000002D0690CDE90400CDE90200CDE90000BC
:10491000C9F80000CAF8000018BF00291CD10028FF
:1049200018BFFFF74FFF002D4FF0000000F0808010
:10493000DDE901124B1E28BF18468A4238BF1046D7
:10494000002C1CBF29182160C9F80050CAF80000CB
:10495000002007B0BDE8F08F029040F21800C2F2CC
:104960000000CDE90051D0E9001280689846069019
:104970002820CDE90412884758B328218346FBF745
:1049800069FC0098002178B1029A002A5A460CD19D
:10499000019905291FD329A103220327FBF77AFCDC
:1049A0006946002808BF02975A46B9B10F68AFB1EF
:1049B000D1E90130984212D23E5C202E04D8013059
:1049C00083428860F8D11846984204BF0138886055
:1049D00005E00020A3E769460029E7D10021104641
:1049E00000F092FE38B3B8F1000F58461BD0009982
:1049F00081B1DDE901329A420CD200BF8F5C202FD9
:104A000004D8013293420292F8D11A469A4204BF66
:104A1000013A0292DDE901329A42BFF480AF895C2B
:104A200000297FF47CAF1CB10099029A11442160E7
:104A300007B0BDE8F08F584671E700BFEFBBBF007D
:104A400070470000000000008AB0FCF775FFFFF718
:104A500043FDFEF7D7F8FEF761F9FEF7B3F8FEF76E
:104A60003BF9FEF773F9FEF78FF9FEF7ABF9FEF7A6
:104A7000C7F9FEF7E3F9FEF7FFF9FEF791F86420B6
:104A80000A21FEF751F8FCF7EFFAFDF739FFFEF7C0
:104A900061FBFCF7CDFAFFF71FFB40F2540940F22F
:104AA000A0259FEDD1CA9FEDD2DB9FEDD38B9FED6B
:104AB000D4EA9FEDD4FA40F2A87BC2F20009C2F218
:104AC00000054FF00008C2F2000B00BF40F2E40006
:104AD000C2F20000FCF71CFFFCF7D2FD40F24C01D3
:104AE000C2F200010968411A322979D340F250011B
:104AF000C2F200010978002940F24C01C2F2000123
:104B000008600CD0FDF712FFB0B140F24900C2F2CC
:104B1000000000780130C1B281420ED012E0FCF7F3
:104B2000B9FAE8B140F24800C2F200000078013062
:104B3000C1B2814215D019E0002040F24901C2F211
:104B40000001087004A8FDF7CDFE04AF8FCF099EC9
:104B500040F2EC24C2F2000484E88F00666110E0A9
:104B6000002040F24801C2F20001087004A8FCF7DE
:104B70006FFA04AF8FCF40F2D426C2F2000686E867
:104B80008F0040F2500340F24801C2F20003C2F22B
:104B9000000118780978012222EA00000329187020
:104BA00006D840F24900C2F200000078042817D36A
:104BB00040F27050C2F2000080F8008040F21C50B9
:104BC000C2F2000080F8008040F28870C2F200005B
:104BD00080F800800FF2B05085F8008002F0AEFE41
:104BE000FCF74EFDD9F80010411AB1F57A7F5BD37E
:104BF00040F2D426C2F2000696ED040A40F2205A92
:104C000080EE0F0AC9F800000120C2F2000A8BF8FA
:104C100000009AF8100040F2EC24C2F200048BF875
:104C2000010094E80700D6E90037B668CBE9012017
:104C30006069CBE90318CBE9086040F21C5040F2F0
:104C40008871C2F20000C2F2000100780978CBE955
:104C500005738BED070A8BF828008BF82910FEF7F7
:104C60006BFAB0EE419A51EC100BF0EE619AFBF743
:104C700024FFCBF82C0051EC190BFBF71EFF9AED2B
:104C8000000BCBF830009AED029B51EC100BFBF7B8
:104C900014FFCBF8340051EC190BFBF70EFFCBF8E7
:104CA00038005846FFF7D6FA2846FEF771FF00286D
:104CB00000F0028140F27050C2F20000007801283A
:104CC00002BF40F27050C2F2000080F8008040F253
:104CD0001400C2F2000001782878814209D0062829
:104CE00007D80FF2E04151F820100FF2F44000F025
:104CF00097FE2878052800F2D980DFE800F06703E6
:104D000049CA850395F90100FEF76AFA40F21400DA
:104D1000C2F200000078297888421AD140F23400AB
:104D2000C2F2000095ED010A90ED001AB4EE410ABE
:104D3000F1EE10FA0DD140F23800C2F2000095ED0C
:104D4000020A90ED001AB4EE410AF1EE10FA00F0FA
:104D5000AD8040F22050C2F2000080F8108095ED46
:104D6000010A40F23400C2F2000095ED02AA80ED83
:104D7000000A40F23800C2F2000080ED00AA10EEF6
:104D8000100AFBF787FE41EC190B1AEE100A12E02D
:104D900040F21400C2F200000078022800F0868081
:104DA00040F2D420C2F20000D0E90070FBF772FE9E
:104DB00041EC190B3846FBF76DFEB0EE490A41ECA9
:104DC000110BF0EE690AFEF717FA6FE0687840F20F
:104DD0001C52C2F20002A978107040F28870C2F230
:104DE0000000017062E000BF0000B44300BF00BFDC
:104DF00000000000000030400000000000004040C3
:104E00000000B4C36666664040F21400C2F20000BF
:104E1000007804284AD040F2EC20C2F2000090ED65
:104E200002BA40F2BC20C2F2000080ED00BA40F2AB
:104E3000D420C2F20000D0E90070FBF72BFE41EC59
:104E4000190B3846FBF726FE41EC1A0B1BEE100A35
:104E5000FBF720FE40F2C02440F2C82641EC120BC2
:104E6000B0EE490AB0EE4A1AB0EE483AC2F2000477
:104E7000C2F20006F0EE690AF0EE6A1AF0EE683A45
:104E800020463146FEF71CF894ED000B96ED001B12
:104E900099E7687840F21C51C2F20001087040F2B4
:104EA0008870C2F2000080F8008000BF287840F2CD
:104EB0001401C2F200010870287DB8B3FFF74CF965
:104EC000A0B340F27050C2F20000007870BB40F214
:104ED0007050C2F20000012101705020FEF780F9ED
:104EE000D5E90307FBF7D6FD044638460E46FBF727
:104EF000D1FD41EC100B47F6C340C0F6000022463E
:104F000033468DED000B00F08BFDD5E90304FBF774
:104F1000C1FD41EC190B2046FBF7BCFD41EC110B28
:104F2000B0EE490AF0EE690AFEF766F9287DAA4656
:104F3000A0B9FFF711F988B140F21C50C2F200008D
:104F400080F8008040F28870C2F2000080F8008093
:104F500047F64C50C0F6000002F0F0FCFCF790FB66
:104F600040F24401C2F2000109688046401A6428F8
:104F7000C0F0DC8040F27050C2F2000000780028DF
:104F800040F24400C2F20000C0F800800BD19AF851
:104F90000000052800F2CA80012101FA00F010F09B
:104FA000360F00F0C38040F2EC20C2F2000090ED1A
:104FB00002BA00BFB5EE40BAF1EE10FA04DA3BEEE9
:104FC0000CBAF7E73BEE0EBAB4EE4CBAF1EE10FABB
:104FD000F8DA40F2D420C2F20000D0E90040FBF73A
:104FE00059FD41EC190B2046FBF754FD41EC1A0B1F
:104FF0001BEE100AFBF74EFD41EC1B0B40F2EC20C0
:10500000C2F200004069FBF745FD41EC130BB0EE26
:10501000490AB0EE4A1AB0EE4B2AF0EE690AF0EEF9
:105020006A1AF0EE6B2AFEF79BF904A8FEF776F8F1
:1050300004AF8FCF40F22054C2F2000484E80F0086
:105040009AF80000099E04282761666137D140F272
:105050002050C2F2000090ED000B53EC1D2B51ECE0
:10506000100BFBF795FC50BB40F2BC2040F2C02473
:1050700040F2C826C2F20000C2F20004C2F20006EA
:10508000006894ED009B96ED00ABFBF703FD41EC4F
:10509000120BB0EE490AB0EE4A1AB0EE483AF0EE02
:1050A000690AF0EE6A1AF0EE683A20463146FDF7DA
:1050B00007FF94ED000B96ED001BFEF79DF8FEF741
:1050C00027F840F24001C2F2000109688146A8EBCE
:1050D0000101B1F5486F17D340F22050C2F2000031
:1050E00090EC040B007C40F24001029047F6155012
:1050F000C2F2000153EC102BC0F60000C1F8008092
:105100008DED001B00F08CFC40F21C51C2F200013E
:105110001FFA89F081F8009040F2887140F254093A
:10512000000AC2F20001C2F20009087040F21C50ED
:10513000C2F20000047840F28870C2F200000678E3
:10514000FCF79EFA40F23C02C2F20002116855469A
:10515000411A64294FF00008FFF4B8AC10605520E4
:105160000490AA208DF8180040F25820C2F20000E6
:1051700004A9092264238DF814408DF81560ADF858
:105180001680FDF731FBA1E45B4D41494E5D205394
:10519000656E736F7220616E6F6D616C79206C69E2
:1051A0006D697420726561636865642C20666F7236
:1051B000636564206D616E75616C2073746F700D32
:1051C00000000000A17D0008987D0008B37D000864
:1051D000837D0008A87D0008C17D0008907D00083F
:1051E0005B4D41494E5D204D6F6465207377697456
:1051F00063683A2025730D0A0000000084460022EF
:1052000000200BE06FF02F0119440844032A02F13B
:10521000010218BF0001042A08BF70471CF80230C1
:10522000A3F130010A29EDD3A3F14101062903D2EC
:105230006FF03601E8E700BFA3F16101052984BFE3
:10524000002070476FF05601DEE70000CB68DA08F7
:105250007C2A84BF002070472DE9F04381B0D1E95A
:1052600001720133BA42CB6080F0BE800B689E5C55
:105270007B2E40F0B9800132BA428A600CD25BB119
:105280009E5C202E04D8013297428A60F8D13A46BB
:10529000BA4204BF013A8A608A68BA4280F0A280AA
:1052A0009B5C7D2B12D100260027CA68002EA2F13C
:1052B0000102CA6018BF77608B684022C0E90262B1
:1052C000581C8860012001B0BDE8F083BA4280F02C
:1052D0008980013A002600278A6000BF0C460969D0
:1052E00081462820884700285ED028210546FAF705
:1052F000B1FFA846002E1EBF3D606F60B046D4E9E6
:105300000130421C9A4251D220682146A26058B115
:10531000875C202F04D8013293428A60F8D11A4664
:105320009A4204BF501E8860284600F067F80028A3
:1053300041D027682146484687B1D1E901329A42D7
:105340000CD200BFBE5C202E04D8013293428A608A
:10535000F8D11A469A4204BF013A8A602A69D1E913
:1053600001372A6200229F422A6121D20A68D65D53
:105370003A2E1CD1781C984288600CD25AB1175C26
:10538000202F04D8013083428860F8D11846984213
:1053900004BF01388860284600F0B6F958B12046AD
:1053A000FFF7F6F9012207E0002207E04846002255
:1053B00046462F4603E0002246462F464846A2B105
:1053C000D4E901329A4210D225682146AD5C2C2DD9
:1053D0003FF484AF9A4208D20B689A5C7D2A3FF46E
:1053E00064AF02E0501E8860002616B13046FFF719
:1053F000E9F9002001B0BDE8F08300002DE9F04F8D
:1054000083B08A460968DAF808204FF000098E1840
:10541000B04618F8012B222A40F05981DAF804200E
:10542000A8EB010393424FF0000538BF0125012787
:1054300093421BD20023C3460DE000BF222C17D09D
:10544000013706EB070BABEB010595424FF000056A
:1054500038BF012524D2F45D5C2CEFD17C1C3519BA
:105460006D1A95421AD201332746E9E7C34617E081
:10547000E90713D0F15D222910D19919ABEB010195
:10548000DAF8102001310446084690478146494623
:105490002046B9F1000F18BF012102E04FF00009CA
:1054A0000021002900F01381022F4D46C0F21C811B
:1054B00006EB070C40F2FF3E4D4606E008F10108FE
:1054C00005F8011BE04580F00F8198F800105C2979
:1054D000F4D1ABEB0803012BC0F2F58098F8012062
:1054E0000021A2F12204532C00F23B800826DFE8C1
:1054F00004F02A3838383838383838383838382AC4
:10550000383838383838383838383838383838381B
:10551000383838383838383838383838383838380B
:105520003838383838383838383838382A38383809
:1055300038383338383832383838383838382C3802
:1055400038382E38303C164606E00A2604E00D2690
:1055500002E0092600E00C2605F8016B02218844D0
:10556000012100297FF4AEAFB1E0062BC0F2A88084
:10557000CDF808A008F1020100224FF0000A0BE06C
:105580006FF02F0633449A44032A02F1010218BF38
:105590004FEA0A1A042A14D08B5CA3F130070A2FB1
:1055A000EED3A3F14107062F02D26FF03606E9E7EA
:1055B000A3F16107052F02D86FF05606E2E74FF01E
:1055C000000A2AEA0E01B1F55C4F76D0B1F5584FCA
:1055D0001BD108F10601ABEB0102062A17DB0978A3
:1055E0005C2914D198F80710752910D1064608F1E6
:1055F00008006446FFF702FEA0F5604111F5806FD8
:105600004ED24FF0000A002151E0062105E04FF094
:10561000000A0021002950D00C21BAF1800FCDF8EA
:1056200004C007D3BAF5006F29D24FF0C00C4FF079
:10563000020E03E04FF0000C4FF0010EBEF101022C
:1056400053464FF002070CD055FA82F6544600BF7D
:10565000A30967F39F14013A06F8014914061C4692
:10566000F6D103F07F02BAF17F0F88BF43EA0C0244
:10567000DDE901CA2A70754440F2FF3E20E0BAF528
:10568000803F04D24FF0E00C4FF0030ED6E74FEA14
:105690001A42102A11D84FF0F00C4FF0040ECDE74B
:1056A0006FF39F206AF3932000F5803A0121304682
:1056B000A44640F2FF3E0029AED1DDF808A000214B
:1056C00000297FF44CAF002100297FF4FBAEB9F133
:1056D000000F03D0DAF8141048468847DAF80000C3
:1056E000A8EB000100200AE000212970DAF8002070
:1056F0001021C0E90319ABEB0200411C0120CAF8DC
:10570000081003B0BDE8F08F2DE9F04782B0002902
:1057100000F078810F688A46002F00F07381DAE983
:105720000156814606F10408A84509D847F6BE414E
:10573000B819C0F6000104220424FAF7ABFD20B327
:10574000741DAC4208D847F6B341B819C0F6000141
:105750000522FAF79FFD00B3A84509D847F6B941DD
:10576000B819C0F600010422FAF794FD00285ED0B3
:10577000B54240F24781B85D222816D148465146CD
:1057800002B0BDE8F047FFF739BEC9F80C40CAF8CF
:105790000880012002B0BDE8F0870120C9F80C00A4
:1057A000CAF8084002B0BDE8F087B54240F22A814D
:1057B000B85D2D2846D03038092843D9B54240F28B
:1057C0002181B85D5B2840F0AE80DAF80C00C1089A
:1057D0007C2900F217810130CAF80C00B85D5B2803
:1057E00040F00B81701CCAF808005046FEF7D0FF4D
:1057F000DAE90110884280F0FD80DAF80020125CBE
:105800005D2A40F0B78000260025DAF80C00002E53
:10581000A0F10100CAF80C0018BF7560DAF8081092
:105820002020C9E90260481CCAF80800B1E702203C
:10583000C9F80C000120C9F81400CAF8088002B0A9
:10584000BDE8F087B8194FF00008A91B0027CDF874
:10585000048004E0652A20D10137B9421CD0C25D22
:10586000A2F130030A2BF7D3A2F12B031A2BF1D8A4
:10587000DFE803F00E130E0F131313131313131398
:1058800013131313131313131313131313130E0000
:10589000E2E74FF00108DFE70F46DAF81010781C56
:1058A0008847064600284FF000003FF473AFDAF84F
:1058B0000000DAF808103A46014430460024FAF7AE
:1058C000B0FC002FF45518BFB8F1000F09D02E20FE
:1058D00031460A782E2A08BF0870013F01F1010104
:1058E000F7D101A9304600F00BFF019CA64226D05B
:1058F0009FED471B58EC107B53EC112B384641466B
:1059000089ED060BFBF744F8D8B99FED430B3846F9
:1059100053EC102B4146FBF705F8A8B93846414631
:10592000FBF799F812E0B5426CD9B85D7B2869D1D4
:105930004846514602B0BDE8F047FFF787BC002457
:1059400010E06FF0004001E04FF00040C9F8140093
:105950000820C9F80C00DAF80800A11B084401244B
:10596000CAF80800DAF8141030468847204602B01A
:10597000BDE8F08788423DD2013800260025CAF8EC
:105980000800DAF8101028208847D8B128210746E7
:10599000FAF760FC3C46002E1EBF2F607D60344647
:1059A000DAF808000130CAF808005046FEF7F0FEA9
:1059B00038465146FFF7A8FE30B15046FEF7E8FEE4
:1059C000012002E0002002E0002026463D46A8B16A
:1059D000DAE90110884211D2DAF80020125C2C2A90
:1059E000CFD088420AD2DAF80010085C5D283FF474
:1059F0000CAF03E00138CAF80800002616B13046A3
:105A0000FEF7E0FE002002B0BDE8F08700BF00BF57
:105A10000000C0FFFFFFDF41000000000000E0C108
:105A20000FB4054B10B503A9044A029801F0A8FB76
:105A300010BC5DF814FB0000414A00080000002083
:105A40000FB47CB50C0009AD01D0611E00E000214F
:105A5000CDE90001064B6A462946089801F090FB03
:105A6000002C02D0009A002111707CBC5DF814FB60
:105A7000AF78000803B401984100009850EAC120B3
:105A800018BF04204A0D18BF40F0010040F2FF7219
:105A9000B2EB515F08BF40F00200012808BF0520AB
:105AA00002B0704730B528B1144C031F00202168A4
:105AB0000A4605E0084630BD9A4203D810465268AF
:105AC000002AF9D1002800D041680BD00468A3EB6C
:105AD0000005A54204D11B681C440346046002E093
